{
  "address": "0x99CE95A7ffDd188ec1dD713451D199D3ab4F2B02",
  "abi": [
    {
      "inputs": [
        {
          "internalType": "address",
          "name": "_owner",
          "type": "address"
        },
        {
          "internalType": "uint16",
          "name": "_fee",
          "type": "uint16"
        },
        {
          "internalType": "uint16",
          "name": "_protocolFee",
          "type": "uint16"
        }
      ],
      "stateMutability": "nonpayable",
      "type": "constructor"
    },
    {
      "anonymous": false,
      "inputs": [
        {
          "indexed": true,
          "internalType": "address",
          "name": "owner",
          "type": "address"
        }
      ],
      "name": "AcceptOwner",
      "type": "event"
    },
    {
      "anonymous": false,
      "inputs": [
        {
          "indexed": true,
          "internalType": "contract IERC20",
          "name": "asset",
          "type": "address"
        },
        {
          "indexed": true,
          "internalType": "contract IERC20",
          "name": "collateral",
          "type": "address"
        },
        {
          "indexed": false,
          "internalType": "contract IPair",
          "name": "pair",
          "type": "address"
        }
      ],
      "name": "CreatePair",
      "type": "event"
    },
    {
      "anonymous": false,
      "inputs": [
        {
          "indexed": true,
          "internalType": "address",
          "name": "pendingOwner",
          "type": "address"
        }
      ],
      "name": "SetOwner",
      "type": "event"
    },
    {
      "inputs": [],
      "name": "acceptOwner",
      "outputs": [],
      "stateMutability": "nonpayable",
      "type": "function"
    },
    {
      "inputs": [
        {
          "internalType": "contract IERC20",
          "name": "asset",
          "type": "address"
        },
        {
          "internalType": "contract IERC20",
          "name": "collateral",
          "type": "address"
        }
      ],
      "name": "createPair",
      "outputs": [
        {
          "internalType": "contract IPair",
          "name": "pair",
          "type": "address"
        }
      ],
      "stateMutability": "nonpayable",
      "type": "function"
    },
    {
      "inputs": [],
      "name": "fee",
      "outputs": [
        {
          "internalType": "uint256",
          "name": "",
          "type": "uint256"
        }
      ],
      "stateMutability": "view",
      "type": "function"
    },
    {
      "inputs": [
        {
          "internalType": "contract IERC20",
          "name": "",
          "type": "address"
        },
        {
          "internalType": "contract IERC20",
          "name": "",
          "type": "address"
        }
      ],
      "name": "getPair",
      "outputs": [
        {
          "internalType": "contract IPair",
          "name": "",
          "type": "address"
        }
      ],
      "stateMutability": "view",
      "type": "function"
    },
    {
      "inputs": [],
      "name": "owner",
      "outputs": [
        {
          "internalType": "address",
          "name": "",
          "type": "address"
        }
      ],
      "stateMutability": "view",
      "type": "function"
    },
    {
      "inputs": [],
      "name": "pendingOwner",
      "outputs": [
        {
          "internalType": "address",
          "name": "",
          "type": "address"
        }
      ],
      "stateMutability": "view",
      "type": "function"
    },
    {
      "inputs": [],
      "name": "protocolFee",
      "outputs": [
        {
          "internalType": "uint256",
          "name": "",
          "type": "uint256"
        }
      ],
      "stateMutability": "view",
      "type": "function"
    },
    {
      "inputs": [
        {
          "internalType": "address",
          "name": "_pendingOwner",
          "type": "address"
        }
      ],
      "name": "setPendingOwner",
      "outputs": [],
      "stateMutability": "nonpayable",
      "type": "function"
    }
  ],
  "transactionHash": "0x670be9884e9293ea6913100f6b6d625579b0ea7dcd4b3edf3e630787434eecc3",
  "args": [
    "0x5F3d16A35Da619dFA0d607563eb1D14b75Fa25c5",
    30,
    30
  ],
  "numDeployments": 1,
  "solcInputHash": "fde3ca3960c5e53a873ef3511df9c84f",
  "bytecode": "0x60c060405234801561001057600080fd5b5060405161548638038061548683398101604081905261002f916100dd565b6001600160a01b0383166100775760405162461bcd60e51b815260040161006e906020808252600490820152634531303160e01b604082015260600190565b60405180910390fd5b61ffff821661008557600080fd5b61ffff811661009357600080fd5b600080546001600160a01b0319166001600160a01b03949094169390931790925561ffff9081166080521660a05261012c565b805161ffff811681146100d857600080fd5b919050565b6000806000606084860312156100f1578283fd5b83516001600160a01b0381168114610107578384fd5b9250610115602085016100c6565b9150610123604085016100c6565b90509250925092565b60805160a05161532861015e6000396000818160c2015261039e01526000818161011f015261037d01526153286000f3fe608060405234801561001057600080fd5b50600436106100885760003560e01c8063ddca3f431161005b578063ddca3f431461011a578063e30c397814610141578063e6a4390514610154578063ebbc49651461018857600080fd5b80638da5cb5b1461008d578063b0e21e8a146100bd578063c42069ec146100f2578063c9c6539614610107575b600080fd5b6000546100a0906001600160a01b031681565b6040516001600160a01b0390911681526020015b60405180910390f35b6100e47f000000000000000000000000000000000000000000000000000000000000000081565b6040519081526020016100b4565b610105610100366004610525565b610190565b005b6100a0610115366004610548565b61024c565b6100e47f000000000000000000000000000000000000000000000000000000000000000081565b6001546100a0906001600160a01b031681565b6100a0610162366004610548565b60026020908152600092835260408084209091529082529020546001600160a01b031681565b61010561048c565b6000546001600160a01b031633146101dc5760405162461bcd60e51b81526004016101d3906020808252600490820152632298981960e11b604082015260600190565b60405180910390fd5b6001600160a01b0381166102025760405162461bcd60e51b81526004016101d390610580565b600180546001600160a01b0319166001600160a01b0383169081179091556040517f167d3e9c1016ab80e58802ca9da10ce5c6a0f4debc46a2e7a2cd9e56899a4fb590600090a250565b6000816001600160a01b0316836001600160a01b031614156102995760405162461bcd60e51b81526004016101d3906020808252600490820152634531303360e01b604082015260600190565b6001600160a01b0383166102bf5760405162461bcd60e51b81526004016101d390610580565b6001600160a01b0382166102e55760405162461bcd60e51b81526004016101d390610580565b6001600160a01b038381166000908152600260209081526040808320868516845290915290205416156103435760405162461bcd60e51b81526004016101d390602080825260049082015263114c4c0d60e21b604082015260600190565b604080516001600160a01b0380861660208301528416918101919091526060016040516020818303038152906040528051906020012083837f00000000000000000000000000000000000000000000000000000000000000007f00000000000000000000000000000000000000000000000000000000000000006040516103c990610518565b6001600160a01b03948516815293909216602084015261ffff90811660408401521660608201526080018190604051809103906000f5905080158015610413573d6000803e3d6000fd5b506001600160a01b0384811660008181526002602090815260408083208886168085529083529281902080546001600160a01b0319169587169586179055519384529394509290917f58e59580cc0153b14c553b340b7d7ae6ab3df9747aa39f82941816c5db3869f2910160405180910390a392915050565b6001546001600160a01b031633146104cf5760405162461bcd60e51b81526004016101d3906020808252600490820152632298981960e11b604082015260600190565b60008054336001600160a01b0319918216811783556001805490921690915560405190917f31775a018194f26a792a0203e972faf15303e08a913cdc54497278e48de6690991a2565b614d3c806105b783390190565b600060208284031215610536578081fd5b81356105418161059e565b9392505050565b6000806040838503121561055a578081fd5b82356105658161059e565b915060208301356105758161059e565b809150509250929050565b6020808252600490820152634531303160e01b604082015260600190565b6001600160a01b03811681146105b357600080fd5b5056fe6101206040523480156200001257600080fd5b5060405162004d3c38038062004d3c8339810160408190526200003591620000a2565b600160005533606090811b6080526001600160601b031994811b851660a0529290921b90921660c05261ffff91821660e0521661010052620000fe565b80516001600160a01b03811681146200008a57600080fd5b919050565b805161ffff811681146200008a57600080fd5b60008060008060808587031215620000b8578384fd5b620000c38562000072565b9350620000d36020860162000072565b9250620000e3604086016200008f565b9150620000f3606086016200008f565b905092959194509250565b60805160601c60a05160601c60c05160601c60e05161010051614b79620001c36000396000818161037a01528181610a1e015261241901526000818161069e015281816109fd01526123f801526000818161067701528181610e11015281816115a301528181611e3701528181612f4801526136440152600081816101e501528181610ddf0152818161151801528181611e16015281816120b10152818161293d01528181612ed301526136880152600081816106500152611f9c0152614b796000f3fe608060405234801561001057600080fd5b506004361061014d5760003560e01c8063aae6fcb4116100c3578063bbc538fb1161007c578063bbc538fb1461058f578063c0eb96e81461061b578063c45a01551461064b578063d8dfeb4514610672578063ddca3f4314610699578063e97b7cc0146106c057600080fd5b8063aae6fcb41461031b578063b064fb3f1461033b578063b0e21e8a14610375578063b5e60c3c1461039c578063b77ee839146103c0578063baadc6fe1461046d57600080fd5b806360553a091161011557806360553a091461024a5780637272efec1461028e57806381e6f6d1146102b157806393910a68146102c4578063a440fef9146102e7578063a7a7b224146102fa57600080fd5b80630f79fca5146101525780631eb9cd431461017857806338d52e0f146101e057806357a3542e1461021f57806357cb264014610241575b600080fd5b610165610160366004614251565b6106f3565b6040519081526020015b60405180910390f35b6101d3610186366004614221565b6040805180820190915260008082526020820152506000908152600260209081526040918290208251808401909352546001600160801b038082168452600160801b909104169082015290565b60405161016f919061463b565b6102077f000000000000000000000000000000000000000000000000000000000000000081565b6040516001600160a01b03909116815260200161016f565b61023261022d36600461401e565b610720565b60405161016f9392919061488b565b61016560015481565b610276610258366004614221565b6000908152600260205260409020600501546001600160781b031690565b6040516001600160781b03909116815260200161016f565b61016561029c366004614221565b60009081526002602052604090206001015490565b6101d36102bf3660046141af565b610f3f565b6102d76102d236600461401e565b61174a565b60405161016f94939291906148a6565b6101656102f5366004613fc6565b611f6d565b61030d61030836600461401e565b612122565b60405161016f929190614791565b61032e610329366004614280565b612a69565b60405161016f91906145f3565b610165610349366004614251565b60008281526002602090815260408083206001600160a01b038516845260090190915290205492915050565b6101657f000000000000000000000000000000000000000000000000000000000000000081565b6101656103aa366004614221565b6000908152600260208190526040909120015490565b6104606103ce366004614251565b6040805160808101825260008082526020820181905291810182905260608101919091525060008281526002602090815260408083206001600160a01b0385168452600801825291829020825160808101845281546001600160701b038082168352600160701b9182900481169483019490945260019092015480841694820194909452920416606082015292915050565b60405161016f91906145e5565b61056561047b366004614221565b60009081526002602081815260409283902083516101408101855281546001600160801b038082166101008401908152600160801b909204166101208301528152600182015481840152928101548385015283516080808201865260038301546001600160701b038082168452600160701b9182900481169584019590955260048401548086169784019790975295869004841660608084019190915285019190915260058201546001600160781b03811691850191909152600160781b9004821660a0840181905260069091015480831660c0850181905294900490911660e090920182905292565b604080516001600160701b039485168152928416602084015292169181019190915260600161016f565b61046061059d366004614221565b60408051608081018252600080825260208201819052918101829052606081019190915250600090815260026020908152604091829020825160808101845260038201546001600160701b038082168352600160701b9182900481169483019490945260049092015480841694820194909452920416606082015290565b61062e610629366004614051565b612b1a565b604080519283526001600160801b0390911660208301520161016f565b6102077f000000000000000000000000000000000000000000000000000000000000000081565b6102077f000000000000000000000000000000000000000000000000000000000000000081565b6101657f000000000000000000000000000000000000000000000000000000000000000081565b6106d36106ce36600461401e565b6130f7565b604080516001600160801b0393841681529290911660208301520161016f565b60008281526002602090815260408083206001600160a01b03851684526007019091529020545b92915050565b6040805160608101825260008082526020820181905291810182905281906002600054141561076a5760405162461bcd60e51b8152600401610761906145ae565b60405180910390fd5b60026000558335421061078f5760405162461bcd60e51b815260040161076190614536565b60006107a16040860160208701613fc6565b6001600160a01b031614156107c85760405162461bcd60e51b815260040161076190614590565b60006107da6060860160408701613fc6565b6001600160a01b031614156108015760405162461bcd60e51b815260040161076190614590565b306108126040860160208701613fc6565b6001600160a01b031614156108395760405162461bcd60e51b815260040161076190614572565b3061084a6060860160408701613fc6565b6001600160a01b031614156108715760405162461bcd60e51b815260040161076190614572565b61088160808501606086016141ca565b6001600160701b03166108a65760405162461bcd60e51b815260040161076190614518565b833560009081526002602081815260409283902083516101408101855281546001600160801b038082166101008401908152600160801b9092041661012083015281526001820154818401529281015483850190815284516080808201875260038401546001600160701b038082168452600160701b9182900481169684019690965260048501548087169884019890985296879004851660608381019190915286019190915260058301546001600160781b03811691860191909152600160781b9004831660a0850152600682015480841660c08601529490940490911660e083015291516109a85760405162461bcd60e51b815260040161076190614554565b60008073080821205A962Bde44B6D7E5E46820F6f9cFC66B634f2909688935866109d860808d0160608e016141ca565b6109e860a08e0160808f016141ca565b8d60a00160208101906109fb91906141ca565b7f00000000000000000000000000000000000000000000000000000000000000007f00000000000000000000000000000000000000000000000000000000000000006040518863ffffffff1660e01b8152600401610a5f97969594939291906147e6565b60a06040518083038186803b158015610a7757600080fd5b505af4158015610a8b573d6000803e3d6000fd5b505050506040513d601f19601f82011682018060405250810190610aaf9190614114565b60208601805193985091945092508391610aca908390614a3e565b90525060018054829190600090610ae2908490614a3e565b90915550610b88905085600986016000610b0260608d0160408e01613fc6565b6001600160a01b0316815260208101919091526040016000209081546001810183556000928352602092839020825190820180549484015160409094015163ffffffff16600160e01b026001600160e01b036001600160701b03958616600160701b026001600160e01b0319909716959093169490941794909417169190911790915590565b9550610b9a6080890160608a016141ca565b6001600160701b03168360000151600001818151610bb89190614a9d565b6001600160801b0316905250602080860151845190910180516001600160701b0390921691610be8908390614a1c565b6001600160801b031690525084516080840180516001600160701b0390921691610c139083906149fa565b6001600160781b0316905250610c2f6080890160608a016141ca565b8360a001818151610c409190614a75565b6001600160701b0316905250610c5c60a0890160808a016141ca565b8360c001818151610c6d91906149cf565b6001600160701b0316905250610c8960c0890160a08a016141ca565b8360e001818151610c9a91906149cf565b6001600160701b03908116909152845180516020918201516001600160801b03918216600160801b92909116919091021787558086015160018801556040808701516002890155606080880151805160038b018054958301519187166001600160e01b031996871617600160701b92881683021790559281015160048b0180549284015191871692861692909217908616840217905560808089015160058b01805460a08c01516001600160781b039093166001600160e81b031990911617600160781b9288169290920291909117905560c089015160068b01805460e08c0151928816961695909517951690920293909317909155610d9f92508a01908a016141ca565b6001600160701b03169650610db48288614abd565b9650610dc08188614abd565b9650610e06610dd560408a0160208b01613fc6565b6001600160a01b037f0000000000000000000000000000000000000000000000000000000000000000169089613768565b6020850151610e43907f000000000000000000000000000000000000000000000000000000000000000090610e3e60c08c018c61498a565b6137bf565b6005840154600685015460408051600160781b9093046001600160701b0390811684528083166020850152600160701b909204909116908201528835907f1147bcb0e71ebff15e66fd21a23234fe9acc1891f46595062d71501b0cacbdaa9060600160405180910390a2610ebd6060890160408a01613fc6565b6001600160a01b0316610ed660408a0160208b01613fc6565b6001600160a01b0316336001600160a01b03167fc4726516366593076075d3550bf236094106d5d311576a357a1f05967262d0798b600001358b8b8b8989604051610f26969594939291906148c8565b60405180910390a4505060016000555092949193509150565b604080518082019091526000808252602082015260026000541415610f765760405162461bcd60e51b8152600401610761906145ae565b60026000558135421015610fb55760405162461bcd60e51b8152600401610761906020808252600490820152634532303360e01b604082015260600190565b6000610fc76040840160208501613fc6565b6001600160a01b03161415610fee5760405162461bcd60e51b815260040161076190614590565b60006110006060840160408501613fc6565b6001600160a01b031614156110275760405162461bcd60e51b815260040161076190614590565b306110386040840160208501613fc6565b6001600160a01b0316141561105f5760405162461bcd60e51b815260040161076190614572565b306110706060840160408501613fc6565b6001600160a01b031614156110975760405162461bcd60e51b815260040161076190614572565b6110a760808301606084016141ca565b6001600160701b03161515806110d457506110c860a08301608084016141ca565b6001600160701b031615155b806110f657506110ea60c0830160a084016141ca565b6001600160701b031615155b80611118575061110c60e0830160c084016141ca565b6001600160701b031615155b6111345760405162461bcd60e51b815260040161076190614518565b813560009081526002602081815260409283902083516101408101855281546001600160801b038082166101008401908152600160801b909204166101208301528152600182015481840152928101548385015283516080808201865260038301546001600160701b038082168452600160701b91829004811695840195909552600480850154808716858a015282900486166060858101919091528088019490945260058501546001600160781b03811693880193909352600160781b909204851660a0870152600684015480861660c08801520490931660e085015293516317db9b6b60e01b8152909373080821205A962Bde44B6D7E5E46820F6f9cFC66B926317db9b6b9261124c928792908a019101614601565b604080518083038186803b15801561126357600080fd5b505af4158015611277573d6000803e3d6000fd5b505050506040513d601f19601f8201168201806040525081019061129b9190614149565b92506112ad60808501606086016141ca565b606082015180516112bf908390614a75565b6001600160701b03169052506112db60a08501608086016141ca565b81606001516020018181516112f09190614a75565b6001600160701b031690525061130c60c0850160a086016141ca565b81606001516040018181516113219190614a75565b6001600160701b031690525061133d60e0850160c086016141ca565b81606001516060018181516113529190614a75565b6001600160701b0390811690915233600090815260088501602090815260409182902082516080808201855282548087168352600160701b9081900487169483019490945260019092015480861694820194909452919092049092166060808401919091529192506113c9919087019087016141ca565b815182906113d8908390614a75565b6001600160701b03169052506113f460a08601608087016141ca565b816020018181516114059190614a75565b6001600160701b031690525061142160c0860160a087016141ca565b816040018181516114329190614a75565b6001600160701b031690525061144e60e0860160c087016141ca565b8160600181815161145f9190614a75565b6001600160701b0390811690915233600090815260088601602090815260409182902085518154928701519085166001600160e01b031993841617600160701b91861682021782559286015160019091018054606088015192861693169290921793169091029190911790555083516001600160801b031615611548578351825180516114ed908390614a9d565b6001600160801b031690525061154861150c6040870160208801613fc6565b85516001600160a01b037f00000000000000000000000000000000000000000000000000000000000000001691906001600160801b0316613768565b60208401516001600160801b0316156115d357836020015182600001516020018181516115759190614a9d565b6001600160801b03169052506115d36115946060870160408801613fc6565b60208601516001600160a01b037f00000000000000000000000000000000000000000000000000000000000000001691906001600160801b0316613768565b815180516020918201516001600160801b03918216600160801b929091169190910217845580830151600185015560408084015160028601556060808501518051600388018054958301516001600160701b039283166001600160e01b031997881617600160701b9184168202179091558285015160048a0180549486015191841694881694909417908316820217909255608087015160058901805460a08a01516001600160781b039093166001600160e81b031990911617600160781b9284169290920291909117905560c087015160068901805460e08a01519284169716969096179116909102179092556116cf918701908701613fc6565b6001600160a01b03166116e86040870160208801613fc6565b6001600160a01b0316336001600160a01b03167fd3240d81c413bb3991c962b2f29da128e2d22cd3f040b2bfe14f0d2a3d0199a2886000013589606001896040516117359392919061475b565b60405180910390a45050600160005550919050565b60408051606081018252600080825260208201819052918101829052819081906002600054141561178d5760405162461bcd60e51b8152600401610761906145ae565b6002600055843542106117b25760405162461bcd60e51b815260040161076190614536565b64010000000042863503106117f25760405162461bcd60e51b81526004016107619060208082526004908201526308a6460760e31b604082015260600190565b60006118046040870160208801613fc6565b6001600160a01b0316141561182b5760405162461bcd60e51b815260040161076190614590565b600061183d6060870160408801613fc6565b6001600160a01b031614156118645760405162461bcd60e51b815260040161076190614590565b306118756040870160208801613fc6565b6001600160a01b0316141561189c5760405162461bcd60e51b815260040161076190614572565b306118ad6060870160408801613fc6565b6001600160a01b031614156118d45760405162461bcd60e51b815260040161076190614572565b6118e460808601606087016141ca565b6001600160701b03166119095760405162461bcd60e51b815260040161076190614518565b61191960a08601608087016141ca565b6001600160701b031661193e5760405162461bcd60e51b815260040161076190614518565b61194e60c0860160a087016141ca565b6001600160701b03166119735760405162461bcd60e51b815260040161076190614518565b8435600081815260026020818152604080842081516101408101835281546001600160801b038082166101008401908152600160801b909204166101208301528152600182015481850152938101548483015281516080808201845260038301546001600160701b038082168452600160701b918290048116968401969096526004840154808716958401959095529384900485166060838101919091528087019290925260058301546001600160781b03811682880152600160781b9004851660a0870152600683015480861660c08801529390930490931660e08501529492939273080821205A962Bde44B6D7E5E46820F6f9cFC66B926397b37914928791611a82918e01908e016141ca565b611a9260a08e0160808f016141ca565b8d60a0016020810190611aa591906141ca565b6040518663ffffffff1660e01b8152600401611ac59594939291906147a5565b60a06040518083038186803b158015611add57600080fd5b505af4158015611af1573d6000803e3d6000fd5b505050506040513d601f19601f82011682018060405250810190611b1591906142b7565b9197509450905085611b525760405162461bcd60e51b8152600401610761906020808252600490820152632299189960e11b604082015260600190565b8582604001818151611b649190614a3e565b90525085600784016000611b7e60408c0160208d01613fc6565b6001600160a01b03166001600160a01b031681526020019081526020016000206000828254611bad9190614a3e565b925050819055508082602001818151611bc69190614a3e565b905250611be384600985016000610b0260608d0160408e01613fc6565b9450611bf56080890160608a016141ca565b6001600160701b03168260000151600001818151611c139190614a1c565b6001600160801b0316905250602080850151835190910180516001600160701b0390921691611c43908390614a1c565b6001600160801b031690525083516080830180516001600160701b0390921691611c6e9083906149fa565b6001600160781b0316905250611c8a6080890160608a016141ca565b8260a001818151611c9b91906149cf565b6001600160701b0316905250611cb760a0890160808a016141ca565b8260c001818151611cc891906149cf565b6001600160701b0316905250611ce460c0890160a08a016141ca565b8260e001818151611cf591906149cf565b6001600160701b03908116909152835180516020918201516001600160801b03918216600160801b92909116919091021786558085015160018701556040808601516002880155606080870151805160038a018054958301519187166001600160e01b031996871617600160701b92881683021790559281015160048a0180549284015191871692861692909217908616840217905560808088015160058a01805460a08b01516001600160781b039093166001600160e81b031990911617600160781b9288169290920291909117905560c088015160068a01805460e08b0151928816961695909517951690920293909317909155611dfa92508a01908a016141ca565b6001600160701b03169650611e0f8188614a3e565b9650611e717f00000000000000000000000000000000000000000000000000000000000000007f00000000000000000000000000000000000000000000000000000000000000008987602001518c8060c00190611e6c919061498a565b613898565b6005830154600684015460408051600160781b9093046001600160701b0390811684528083166020850152600160701b909204909116908201528835907f1147bcb0e71ebff15e66fd21a23234fe9acc1891f46595062d71501b0cacbdaa9060600160405180910390a2611eeb6060890160408a01613fc6565b6001600160a01b0316611f0460408a0160208b01613fc6565b6001600160a01b0316336001600160a01b03167f88018ff4a4eb65189878e69e43401baaf50cfe5cdc5d0412a32f646d193b88f68b600001358b8b8b8b89604051611f54969594939291906148ff565b60405180910390a4505060016000555092949193509190565b600060026000541415611f925760405162461bcd60e51b8152600401610761906145ae565b60026000819055507f00000000000000000000000000000000000000000000000000000000000000006001600160a01b0316638da5cb5b6040518163ffffffff1660e01b815260040160206040518083038186803b158015611ff357600080fd5b505afa158015612007573d6000803e3d6000fd5b505050506040513d601f19601f8201168201806040525081019061202b9190613fe2565b6001600160a01b0316336001600160a01b0316146120745760405162461bcd60e51b8152600401610761906020808252600490820152632299189b60e11b604082015260600190565b6001600160a01b03821661209a5760405162461bcd60e51b815260040161076190614590565b506001805460009091556120d86001600160a01b037f0000000000000000000000000000000000000000000000000000000000000000168383613768565b6040518181526001600160a01b0383169033907fbea3eebc02d46c3713e32d2ca6ab0ee1698c47e76cd1bd7707794dcea8bf56f19060200160405180910390a36001600055919050565b6040805160808101825260008082526020820181905291810182905260608101829052600260005414156121685760405162461bcd60e51b8152600401610761906145ae565b60026000558235421061218d5760405162461bcd60e51b815260040161076190614536565b600061219f6040850160208601613fc6565b6001600160a01b031614156121c65760405162461bcd60e51b815260040161076190614590565b60006121d86060850160408601613fc6565b6001600160a01b031614156121ff5760405162461bcd60e51b815260040161076190614590565b306122106040850160208601613fc6565b6001600160a01b031614156122375760405162461bcd60e51b815260040161076190614572565b306122486060850160408601613fc6565b6001600160a01b0316141561226f5760405162461bcd60e51b815260040161076190614572565b61227f60808401606085016141ca565b6001600160701b03166122a45760405162461bcd60e51b815260040161076190614518565b823560009081526002602081815260409283902083516101408101855281546001600160801b038082166101008401908152600160801b9092041661012083015281526001820154818401529281015483850190815284516080808201875260038401546001600160701b038082168452600160701b9182900481169684019690965260048501548087169884019890985296879004851660608381019190915286019190915260058301546001600160781b03811691860191909152600160781b9004831660a0850152600682015480841660c08601529490940490911660e083015291516123a65760405162461bcd60e51b815260040161076190614554565b60008073080821205A962Bde44B6D7E5E46820F6f9cFC66B63ae375c4b8835866123d660808c0160608d016141ca565b6123e660a08d0160808e016141ca565b6123f660c08e0160a08f016141ca565b7f00000000000000000000000000000000000000000000000000000000000000007f00000000000000000000000000000000000000000000000000000000000000006040518863ffffffff1660e01b815260040161245a97969594939291906147e6565b60c06040518083038186803b15801561247257600080fd5b505af4158015612486573d6000803e3d6000fd5b505050506040513d601f19601f820116820180604052508101906124aa9190614062565b602086018051939850919450925083916124c5908390614a3e565b905250600180548291906000906124dd908490614a3e565b90915550508451606084015180516124f69083906149cf565b6001600160701b03169052506020808601516060850151909101805161251d9083906149cf565b6001600160701b0316905250604080860151606085015190910180516125449083906149cf565b6001600160701b031690525060608086015184820151909101805161256a9083906149cf565b6001600160701b0316905250845160088501600061258e60408b0160208c01613fc6565b6001600160a01b031681526020810191909152604001600090812080549091906125c29084906001600160701b03166149cf565b92506101000a8154816001600160701b0302191690836001600160701b0316021790555084602001518460080160008960200160208101906126049190613fc6565b6001600160a01b0316815260208101919091526040016000208054600e9061263d908490600160701b90046001600160701b03166149cf565b92506101000a8154816001600160701b0302191690836001600160701b03160217905550846040015184600801600089604001602081019061267f9190613fc6565b6001600160a01b031681526020810191909152604001600090812060010180549091906126b69084906001600160701b03166149cf565b92506101000a8154816001600160701b0302191690836001600160701b0316021790555084606001518460080160008960400160208101906126f89190613fc6565b6001600160a01b0316815260208101919091526040016000206001018054600e90612734908490600160701b90046001600160701b03166149cf565b92506101000a8154816001600160701b0302191690836001600160701b0316021790555086606001602081019061276b91906141ca565b6001600160701b031683600001516000018181516127899190614a1c565b6001600160801b03169052506127a560808801606089016141ca565b8360a0018181516127b691906149cf565b6001600160701b03169052506127d260a08801608089016141ca565b8360c0018181516127e39190614a75565b6001600160701b03169052506127ff60c0880160a089016141ca565b8360e0018181516128109190614a75565b6001600160701b03908116909152845180516020918201516001600160801b03918216600160801b92909116919091021787558086015160018801556040808701516002890155606080880151805160038b018054958301519187166001600160e01b031996871617600160701b92881683021790559281015160048b0180549284015191871692861692909217908616840217905560808089015160058b01805460a08c01516001600160781b039093166001600160e81b031990911617600160781b9288169290920291909117905560c089015160068b01805460e08c0151928816961695909517951690920293909317909155612915925089019089016141ca565b6001600160701b0316955061292a8287614a3e565b95506129368187614a3e565b955061296f7f00000000000000000000000000000000000000000000000000000000000000008761296a60c08b018b61498a565b6139e5565b6005840154600685015460408051600160781b9093046001600160701b0390811684528083166020850152600160701b909204909116908201528735907f1147bcb0e71ebff15e66fd21a23234fe9acc1891f46595062d71501b0cacbdaa9060600160405180910390a26129e96060880160408901613fc6565b6001600160a01b0316612a026040890160208a01613fc6565b6001600160a01b0316336001600160a01b03167fc6ae44b99f4b17a71cd3ae5da13dc05e88b22f10c92b25a20336fe8daae231958a600001358a8a8888604051612a5095949392919061485c565b60405180910390a4505050506001600081905550915091565b6040805160608101825260008082526020808301829052828401829052868252600281528382206001600160a01b0387168352600901905291909120805483908110612ac557634e487b7160e01b600052603260045260246000fd5b60009182526020918290206040805160608101825291909201546001600160701b038082168352600160701b8204169382019390935263ffffffff600160e01b909304929092169082015290505b9392505050565b60008060026000541415612b405760405162461bcd60e51b8152600401610761906145ae565b60026000558235421015612b7f5760405162461bcd60e51b8152600401610761906020808252600490820152634532303360e01b604082015260600190565b6000612b916040850160208601613fc6565b6001600160a01b03161415612bb85760405162461bcd60e51b815260040161076190614590565b6000612bca6060850160408601613fc6565b6001600160a01b03161415612bf15760405162461bcd60e51b815260040161076190614590565b30612c026040850160208601613fc6565b6001600160a01b03161415612c295760405162461bcd60e51b815260040161076190614572565b30612c3a6060850160408601613fc6565b6001600160a01b03161415612c615760405162461bcd60e51b815260040161076190614572565b6060830135612c825760405162461bcd60e51b815260040161076190614518565b823560009081526002602081815260409283902083516101408101855281546001600160801b038082166101008401908152600160801b9092041661012083015281526001820154818401529281015483850190815284516080808201875260038401546001600160701b038082168452600160701b9182900481169684019690965260048501548087169884019890985296879004851660608381019190915286019190915260058301546001600160781b03811691860191909152600160781b9004831660a0850152600682015480841660c08601529490940490911660e08301529151612d845760405162461bcd60e51b815260040161076190614554565b60405163029b65e160e41b8152600090819073080821205A962Bde44B6D7E5E46820F6f9cFC66B906329b65e1090612dc690879060608c01359060040161461e565b60606040518083038186803b158015612dde57600080fd5b505af4158015612df2573d6000803e3d6000fd5b505050506040513d601f19601f82011682018060405250810190612e1691906141e6565b604086018051929850929450925060608901359190612e36908390614abd565b9052503360009081526007850160205260408120805460608a01359290612e5e908490614abd565b90915550506001600160801b0382169550612e798187614a3e565b95508515612efa5782518051839190612e93908390614a9d565b6001600160801b0316905250602083018051829190612eb3908390614abd565b905250612efa612ec96040890160208a01613fc6565b6001600160a01b037f0000000000000000000000000000000000000000000000000000000000000000169088613768565b6001600160801b03851615612f7857848360000151602001818151612f1f9190614a9d565b6001600160801b0316905250612f78612f3e6060890160408a01613fc6565b6001600160a01b037f000000000000000000000000000000000000000000000000000000000000000016906001600160801b038816613768565b825180516020918201516001600160801b03918216600160801b929091169190910217855580840151600186015560408085015160028701556060808601518051600389018054958301516001600160701b039283166001600160e01b031997881617600160701b9184168202179091558285015160048b0180549486015191841694881694909417908316820217909255608088015160058a01805460a08b01516001600160781b039093166001600160e81b031990911617600160781b9284169290920291909117905560c088015160068a01805460e08b0151928416971696909617911690910217909255613074918901908901613fc6565b6001600160a01b031661308d6040890160208a01613fc6565b604080518a3581526060808c013560208301529181018a90526001600160801b03891691810191909152608081018490526001600160a01b03919091169033907fe29621344001b5bbfbfa920bf7ad2b10cb37ac862596010c0c9e813e65ed344f9060a001612a50565b6000806002600054141561311d5760405162461bcd60e51b8152600401610761906145ae565b6002600055823542106131425760405162461bcd60e51b815260040161076190614536565b60006131546060850160408601613fc6565b6001600160a01b0316141561317b5760405162461bcd60e51b815260040161076190614590565b600061318d6040850160208601613fc6565b6001600160a01b031614156131b45760405162461bcd60e51b815260040161076190614590565b306131c56040850160208601613fc6565b6001600160a01b031614156131ec5760405162461bcd60e51b815260040161076190614572565b60006131fb606085018561493b565b915061320c9050608085018561493b565b9050811461322c5760405162461bcd60e51b815260040161076190614518565b61323960a085018561493b565b905081146132595760405162461bcd60e51b815260040161076190614518565b83356000908152600260205260408082209190600983019082906132839060608a01908a01613fc6565b6001600160a01b03168152602081019190915260400160002080549091508311156132c05760405162461bcd60e51b815260040161076190614518565b60005b83811015613597576000826132db60608a018a61493b565b848181106132f957634e487b7160e01b600052603260045260246000fd5b905060200201358154811061331e57634e487b7160e01b600052603260045260246000fd5b9060005260206000200190506133314390565b8154600160e01b900463ffffffff9081169116141561337b5760405162461bcd60e51b8152600401610761906020808252600490820152634532303760e01b604082015260600190565b600061338a60808a018a61493b565b848181106133a857634e487b7160e01b600052603260045260246000fd5b90506020020160208101906133bd91906141ca565b905060006133ce60a08b018b61493b565b858181106133ec57634e487b7160e01b600052603260045260246000fd5b905060200201602081019061340191906141ca565b90503361341460608c0160408d01613fc6565b6001600160a01b031614613462576001600160701b038116156134625760405162461bcd60e51b8152600401610761906020808252600490820152634532313360e01b604082015260600190565b825461347b906001600160701b03908116908316614a56565b835461349b906001600160701b03600160701b9091048116908516614a56565b10156134d25760405162461bcd60e51b8152600401610761906020808252600490820152634533303360e01b604082015260600190565b8254829084906000906134ef9084906001600160701b0316614a75565b92506101000a8154816001600160701b0302191690836001600160701b031602179055508083600001600e8282829054906101000a90046001600160701b03166135399190614a75565b92506101000a8154816001600160701b0302191690836001600160701b03160217905550816001600160701b0316896135729190614a1c565b98506135876001600160701b03821689614a1c565b97508360010193505050506132c3565b508154859083906000906135b59084906001600160801b0316614a1c565b82546101009290920a6001600160801b03818102199093169183160217909155835486925084916010916135f2918591600160801b900416614a9d565b92506101000a8154816001600160801b0302191690836001600160801b03160217905550836001600160801b03166000146136745761367461363a6040880160208901613fc6565b6001600160a01b037f000000000000000000000000000000000000000000000000000000000000000016906001600160801b038716613768565b6001600160801b038516156136ba576136ba7f0000000000000000000000000000000000000000000000000000000000000000866136b560c08a018a61498a565b613aad565b6136ca6060870160408801613fc6565b6001600160a01b03166136e36040880160208901613fc6565b6001600160a01b0316337f5a01dee47555c7f01c7780ac1365c62953080831de57e9f8c683842a8f05103c893561371d60608c018c61493b565b61372a60808e018e61493b565b8e8060a0019061373a919061493b565b8f8f604051613751999897969594939291906146ae565b60405180910390a450506001600055509092909150565b604080516001600160a01b038416602482015260448082018490528251808303909101815260649091019091526020810180516001600160e01b031663a9059cbb60e01b1790526137ba908490613b46565b505050565b60006137d3856001600160a01b0316613c18565b6040516390e4d0b160e01b815290915033906390e4d0b1906137fd9087908790879060040161465f565b600060405180830381600087803b15801561381757600080fd5b505af115801561382b573d6000803e3d6000fd5b505050506000613843866001600160a01b0316613c18565b90506138586001600160701b03861683614a3e565b8110156138905760405162461bcd60e51b8152600401610761906020808252600490820152634533303560e01b604082015260600190565b505050505050565b60006138ac876001600160a01b0316613c18565b905060006138c2876001600160a01b0316613c18565b60405163c317bf6160e01b8152909150339063c317bf61906138ee908990899089908990600401614833565b600060405180830381600087803b15801561390857600080fd5b505af115801561391c573d6000803e3d6000fd5b505050506000613934896001600160a01b0316613c18565b9050600061394a896001600160a01b0316613c18565b90506139568885614a3e565b82101561398e5760405162461bcd60e51b815260040161076190602080825260049082015263114ccc0d60e21b604082015260600190565b6139a16001600160701b03881684614a3e565b8110156139d95760405162461bcd60e51b8152600401610761906020808252600490820152634533303560e01b604082015260600190565b50505050505050505050565b60006139f9856001600160a01b0316613c18565b604051631ac6082d60e01b81529091503390631ac6082d90613a2390879087908790600401614741565b600060405180830381600087803b158015613a3d57600080fd5b505af1158015613a51573d6000803e3d6000fd5b505050506000613a69866001600160a01b0316613c18565b9050613a758583614a3e565b8110156138905760405162461bcd60e51b815260040161076190602080825260049082015263114ccc0d60e21b604082015260600190565b6000613ac1856001600160a01b0316613c18565b60405163c70449bf60e01b8152909150339063c70449bf90613aeb9087908790879060040161468b565b600060405180830381600087803b158015613b0557600080fd5b505af1158015613b19573d6000803e3d6000fd5b505050506000613b31866001600160a01b0316613c18565b9050613a756001600160801b03861683614a3e565b6000613b9b826040518060400160405280602081526020017f5361666545524332303a206c6f772d6c6576656c2063616c6c206661696c6564815250856001600160a01b0316613cac9092919063ffffffff16565b8051909150156137ba5780806020019051810190613bb99190613ffe565b6137ba5760405162461bcd60e51b815260206004820152602a60248201527f5361666545524332303a204552433230206f7065726174696f6e20646964206e6044820152691bdd081cdd58d8d9595960b21b6064820152608401610761565b60408051306024808301919091528251808303909101815260449091018252602080820180516001600160e01b03166370a0823160e01b179052825180840190935260168352752330b4b632b21022a9219918103130b630b731b2a7b360511b908301526000918291613c96916001600160a01b0386169190613cc3565b905080806020019051810190612b139190614239565b6060613cbb8484600085613d9d565b949350505050565b60606001600160a01b0384163b613d285760405162461bcd60e51b8152602060048201526024808201527f416464726573733a207374617469632063616c6c20746f206e6f6e2d636f6e746044820152631c9858dd60e21b6064820152608401610761565b600080856001600160a01b031685604051613d4391906144c9565b600060405180830381855afa9150503d8060008114613d7e576040519150601f19603f3d011682016040523d82523d6000602084013e613d83565b606091505b5091509150613d93828286613ece565b9695505050505050565b606082471015613dfe5760405162461bcd60e51b815260206004820152602660248201527f416464726573733a20696e73756666696369656e742062616c616e636520666f6044820152651c8818d85b1b60d21b6064820152608401610761565b6001600160a01b0385163b613e555760405162461bcd60e51b815260206004820152601d60248201527f416464726573733a2063616c6c20746f206e6f6e2d636f6e74726163740000006044820152606401610761565b600080866001600160a01b03168587604051613e7191906144c9565b60006040518083038185875af1925050503d8060008114613eae576040519150601f19603f3d011682016040523d82523d6000602084013e613eb3565b606091505b5091509150613ec3828286613ece565b979650505050505050565b60608315613edd575081612b13565b825115613eed5782518084602001fd5b8160405162461bcd60e51b815260040161076191906144e5565b600060e08284031215613f18578081fd5b50919050565b600060608284031215613f2f578081fd5b6040516060810181811067ffffffffffffffff82111715613f5e57634e487b7160e01b83526041600452602483fd5b80604052508091508251613f7181614b2e565b81526020830151613f8181614b2e565b6020820152604083015163ffffffff81168114613f9d57600080fd5b6040919091015292915050565b80516001600160801b0381168114613fc157600080fd5b919050565b600060208284031215613fd7578081fd5b8135612b1381614b16565b600060208284031215613ff3578081fd5b8151612b1381614b16565b60006020828403121561400f578081fd5b81518015158114612b13578182fd5b60006020828403121561402f578081fd5b813567ffffffffffffffff811115614045578182fd5b613cbb84828501613f07565b600060808284031215613f18578081fd5b600080600083850360c0811215614077578283fd5b6080811215614084578283fd5b506040516080810181811067ffffffffffffffff821117156140b457634e487b7160e01b84526041600452602484fd5b60405284516140c281614b2e565b815260208501516140d281614b2e565b602082015260408501516140e581614b2e565b604082015260608501516140f881614b2e565b6060820152608085015160a09095015190969495509392505050565b600080600060a08486031215614128578283fd5b6141328585613f1e565b925060608401519150608084015190509250925092565b60006040828403121561415a578081fd5b6040516040810181811067ffffffffffffffff8211171561418957634e487b7160e01b83526041600452602483fd5b60405261419583613faa565b81526141a360208401613faa565b60208201529392505050565b600060e082840312156141c0578081fd5b612b138383613f07565b6000602082840312156141db578081fd5b8135612b1381614b2e565b6000806000606084860312156141fa578081fd5b61420384613faa565b925061421160208501613faa565b9150604084015190509250925092565b600060208284031215614232578081fd5b5035919050565b60006020828403121561424a578081fd5b5051919050565b60008060408385031215614263578182fd5b82359150602083013561427581614b16565b809150509250929050565b600080600060608486031215614294578081fd5b8335925060208401356142a681614b16565b929592945050506040919091013590565b600080600060a084860312156142cb578081fd5b835192506142dc8560208601613f1e565b9150608084015190509250925092565b81835260006020808501945082825b8581101561432957813561430e81614b2e565b6001600160701b0316875295820195908201906001016142fb565b509495945050505050565b81835281816020850137506000828201602090810191909152601f909101601f19169091010190565b803561436881614b2e565b6001600160701b03908116835260208201359061438482614b2e565b908116602084015260408201359061439b82614b2e565b90811660408401526060820135906143b282614b2e565b808216606085015250505050565b80516001600160701b03908116835260208083015182169084015260408083015182169084015260609182015116910152565b6001600160701b038082511683528060208301511660208401525063ffffffff60408201511660408301525050565b80546001600160801b0381168352608090811c6020840152600182015460408401526002820154606084015260038201546001600160701b0380821692850192909252607090811c821660a0850152600483015480831660c0860152811c821660e085015260058301546001600160781b03811661010086015260781c821661012085015260068301548083166101408601529081901c8216610160850152905b50505050565b600082516144db818460208701614ad4565b9190910192915050565b6020815260008251806020840152614504816040850160208701614ad4565b601f01601f19169190910160400192915050565b6020808252600490820152634532303560e01b604082015260600190565b6020808252600490820152632299181960e11b604082015260600190565b6020808252600490820152632299181b60e11b604082015260600190565b602080825260049082015263114c8c0d60e21b604082015260600190565b6020808252600490820152634532303160e01b604082015260600190565b6020808252601f908201527f5265656e7472616e637947756172643a207265656e7472616e742063616c6c00604082015260600190565b6080810161071a82846143c0565b6060810161071a82846143f3565b61020081016146108285614422565b612b1361018083018461435d565b6101a0810161462d8285614422565b826101808301529392505050565b6040810161071a828480516001600160801b03908116835260209182015116910152565b6001600160701b0384168152604060208201526000614682604083018486614334565b95945050505050565b6001600160801b0384168152604060208201526000614682604083018486614334565b89815260c060208201819052810188905260006001600160fb1b038911156146d4578081fd5b8860051b808b60e0850137808301905060e0810182815260e0848303016040850152614701818a8c6142ec565b91505082810360608401526147178187896142ec565b9150506001600160801b03808516608084015280841660a0840152509a9950505050505050505050565b838152604060208201526000614682604083018486614334565b83815260e0810161476f602083018561435d565b82516001600160801b0390811660a084015260208401511660c0830152613cbb565b82815260a08101612b1360208301846143c0565b85815261020081016147ba6020830187614422565b6001600160701b039485166101a08301529284166101c082015292166101e09092019190915292915050565b87815261024081016147fb6020830189614422565b6001600160701b039687166101a08301529486166101c0820152929094166101e0830152610200820152610220019190915292915050565b8481526001600160701b0384166020820152606060408201526000613d93606083018486614334565b85815260208101859052610100810161487860408301866143c0565b60c082019390935260e001529392505050565b8381526020810183905260a08101613cbb60408301846143f3565b848152602081018490526040810183905260c0810161468260608301846143f3565b868152602081018690526040810185905261010081016148eb60608301866143f3565b60c082019390935260e00152949350505050565b60006101008201905087825286602083015285604083015284606083015261492a60808301856143f3565b8260e0830152979650505050505050565b6000808335601e19843603018112614951578283fd5b83018035915067ffffffffffffffff82111561496b578283fd5b6020019150600581901b360382131561498357600080fd5b9250929050565b6000808335601e198436030181126149a0578283fd5b83018035915067ffffffffffffffff8211156149ba578283fd5b60200191503681900382131561498357600080fd5b60006001600160701b038083168185168083038211156149f1576149f1614b00565b01949350505050565b60006001600160781b038083168185168083038211156149f1576149f1614b00565b60006001600160801b038083168185168083038211156149f1576149f1614b00565b60008219821115614a5157614a51614b00565b500190565b6000816000190483118215151615614a7057614a70614b00565b500290565b60006001600160701b0383811690831681811015614a9557614a95614b00565b039392505050565b60006001600160801b0383811690831681811015614a9557614a95614b00565b600082821015614acf57614acf614b00565b500390565b60005b83811015614aef578181015183820152602001614ad7565b838111156144c35750506000910152565b634e487b7160e01b600052601160045260246000fd5b6001600160a01b0381168114614b2b57600080fd5b50565b6001600160701b0381168114614b2b57600080fdfea26469706673582212200963786da14232a66195d4a45ffce85c123dab39a827658831125f6d7f65505264736f6c63430008040033a2646970667358221220a3eae054eb0b5b73fcad40166944302b56175d4a8a36dd39465c953a08b3bd7b64736f6c63430008040033",
  "deployedBytecode": "0x608060405234801561001057600080fd5b50600436106100885760003560e01c8063ddca3f431161005b578063ddca3f431461011a578063e30c397814610141578063e6a4390514610154578063ebbc49651461018857600080fd5b80638da5cb5b1461008d578063b0e21e8a146100bd578063c42069ec146100f2578063c9c6539614610107575b600080fd5b6000546100a0906001600160a01b031681565b6040516001600160a01b0390911681526020015b60405180910390f35b6100e47f000000000000000000000000000000000000000000000000000000000000000081565b6040519081526020016100b4565b610105610100366004610525565b610190565b005b6100a0610115366004610548565b61024c565b6100e47f000000000000000000000000000000000000000000000000000000000000000081565b6001546100a0906001600160a01b031681565b6100a0610162366004610548565b60026020908152600092835260408084209091529082529020546001600160a01b031681565b61010561048c565b6000546001600160a01b031633146101dc5760405162461bcd60e51b81526004016101d3906020808252600490820152632298981960e11b604082015260600190565b60405180910390fd5b6001600160a01b0381166102025760405162461bcd60e51b81526004016101d390610580565b600180546001600160a01b0319166001600160a01b0383169081179091556040517f167d3e9c1016ab80e58802ca9da10ce5c6a0f4debc46a2e7a2cd9e56899a4fb590600090a250565b6000816001600160a01b0316836001600160a01b031614156102995760405162461bcd60e51b81526004016101d3906020808252600490820152634531303360e01b604082015260600190565b6001600160a01b0383166102bf5760405162461bcd60e51b81526004016101d390610580565b6001600160a01b0382166102e55760405162461bcd60e51b81526004016101d390610580565b6001600160a01b038381166000908152600260209081526040808320868516845290915290205416156103435760405162461bcd60e51b81526004016101d390602080825260049082015263114c4c0d60e21b604082015260600190565b604080516001600160a01b0380861660208301528416918101919091526060016040516020818303038152906040528051906020012083837f00000000000000000000000000000000000000000000000000000000000000007f00000000000000000000000000000000000000000000000000000000000000006040516103c990610518565b6001600160a01b03948516815293909216602084015261ffff90811660408401521660608201526080018190604051809103906000f5905080158015610413573d6000803e3d6000fd5b506001600160a01b0384811660008181526002602090815260408083208886168085529083529281902080546001600160a01b0319169587169586179055519384529394509290917f58e59580cc0153b14c553b340b7d7ae6ab3df9747aa39f82941816c5db3869f2910160405180910390a392915050565b6001546001600160a01b031633146104cf5760405162461bcd60e51b81526004016101d3906020808252600490820152632298981960e11b604082015260600190565b60008054336001600160a01b0319918216811783556001805490921690915560405190917f31775a018194f26a792a0203e972faf15303e08a913cdc54497278e48de6690991a2565b614d3c806105b783390190565b600060208284031215610536578081fd5b81356105418161059e565b9392505050565b6000806040838503121561055a578081fd5b82356105658161059e565b915060208301356105758161059e565b809150509250929050565b6020808252600490820152634531303160e01b604082015260600190565b6001600160a01b03811681146105b357600080fd5b5056fe6101206040523480156200001257600080fd5b5060405162004d3c38038062004d3c8339810160408190526200003591620000a2565b600160005533606090811b6080526001600160601b031994811b851660a0529290921b90921660c05261ffff91821660e0521661010052620000fe565b80516001600160a01b03811681146200008a57600080fd5b919050565b805161ffff811681146200008a57600080fd5b60008060008060808587031215620000b8578384fd5b620000c38562000072565b9350620000d36020860162000072565b9250620000e3604086016200008f565b9150620000f3606086016200008f565b905092959194509250565b60805160601c60a05160601c60c05160601c60e05161010051614b79620001c36000396000818161037a01528181610a1e015261241901526000818161069e015281816109fd01526123f801526000818161067701528181610e11015281816115a301528181611e3701528181612f4801526136440152600081816101e501528181610ddf0152818161151801528181611e16015281816120b10152818161293d01528181612ed301526136880152600081816106500152611f9c0152614b796000f3fe608060405234801561001057600080fd5b506004361061014d5760003560e01c8063aae6fcb4116100c3578063bbc538fb1161007c578063bbc538fb1461058f578063c0eb96e81461061b578063c45a01551461064b578063d8dfeb4514610672578063ddca3f4314610699578063e97b7cc0146106c057600080fd5b8063aae6fcb41461031b578063b064fb3f1461033b578063b0e21e8a14610375578063b5e60c3c1461039c578063b77ee839146103c0578063baadc6fe1461046d57600080fd5b806360553a091161011557806360553a091461024a5780637272efec1461028e57806381e6f6d1146102b157806393910a68146102c4578063a440fef9146102e7578063a7a7b224146102fa57600080fd5b80630f79fca5146101525780631eb9cd431461017857806338d52e0f146101e057806357a3542e1461021f57806357cb264014610241575b600080fd5b610165610160366004614251565b6106f3565b6040519081526020015b60405180910390f35b6101d3610186366004614221565b6040805180820190915260008082526020820152506000908152600260209081526040918290208251808401909352546001600160801b038082168452600160801b909104169082015290565b60405161016f919061463b565b6102077f000000000000000000000000000000000000000000000000000000000000000081565b6040516001600160a01b03909116815260200161016f565b61023261022d36600461401e565b610720565b60405161016f9392919061488b565b61016560015481565b610276610258366004614221565b6000908152600260205260409020600501546001600160781b031690565b6040516001600160781b03909116815260200161016f565b61016561029c366004614221565b60009081526002602052604090206001015490565b6101d36102bf3660046141af565b610f3f565b6102d76102d236600461401e565b61174a565b60405161016f94939291906148a6565b6101656102f5366004613fc6565b611f6d565b61030d61030836600461401e565b612122565b60405161016f929190614791565b61032e610329366004614280565b612a69565b60405161016f91906145f3565b610165610349366004614251565b60008281526002602090815260408083206001600160a01b038516845260090190915290205492915050565b6101657f000000000000000000000000000000000000000000000000000000000000000081565b6101656103aa366004614221565b6000908152600260208190526040909120015490565b6104606103ce366004614251565b6040805160808101825260008082526020820181905291810182905260608101919091525060008281526002602090815260408083206001600160a01b0385168452600801825291829020825160808101845281546001600160701b038082168352600160701b9182900481169483019490945260019092015480841694820194909452920416606082015292915050565b60405161016f91906145e5565b61056561047b366004614221565b60009081526002602081815260409283902083516101408101855281546001600160801b038082166101008401908152600160801b909204166101208301528152600182015481840152928101548385015283516080808201865260038301546001600160701b038082168452600160701b9182900481169584019590955260048401548086169784019790975295869004841660608084019190915285019190915260058201546001600160781b03811691850191909152600160781b9004821660a0840181905260069091015480831660c0850181905294900490911660e090920182905292565b604080516001600160701b039485168152928416602084015292169181019190915260600161016f565b61046061059d366004614221565b60408051608081018252600080825260208201819052918101829052606081019190915250600090815260026020908152604091829020825160808101845260038201546001600160701b038082168352600160701b9182900481169483019490945260049092015480841694820194909452920416606082015290565b61062e610629366004614051565b612b1a565b604080519283526001600160801b0390911660208301520161016f565b6102077f000000000000000000000000000000000000000000000000000000000000000081565b6102077f000000000000000000000000000000000000000000000000000000000000000081565b6101657f000000000000000000000000000000000000000000000000000000000000000081565b6106d36106ce36600461401e565b6130f7565b604080516001600160801b0393841681529290911660208301520161016f565b60008281526002602090815260408083206001600160a01b03851684526007019091529020545b92915050565b6040805160608101825260008082526020820181905291810182905281906002600054141561076a5760405162461bcd60e51b8152600401610761906145ae565b60405180910390fd5b60026000558335421061078f5760405162461bcd60e51b815260040161076190614536565b60006107a16040860160208701613fc6565b6001600160a01b031614156107c85760405162461bcd60e51b815260040161076190614590565b60006107da6060860160408701613fc6565b6001600160a01b031614156108015760405162461bcd60e51b815260040161076190614590565b306108126040860160208701613fc6565b6001600160a01b031614156108395760405162461bcd60e51b815260040161076190614572565b3061084a6060860160408701613fc6565b6001600160a01b031614156108715760405162461bcd60e51b815260040161076190614572565b61088160808501606086016141ca565b6001600160701b03166108a65760405162461bcd60e51b815260040161076190614518565b833560009081526002602081815260409283902083516101408101855281546001600160801b038082166101008401908152600160801b9092041661012083015281526001820154818401529281015483850190815284516080808201875260038401546001600160701b038082168452600160701b9182900481169684019690965260048501548087169884019890985296879004851660608381019190915286019190915260058301546001600160781b03811691860191909152600160781b9004831660a0850152600682015480841660c08601529490940490911660e083015291516109a85760405162461bcd60e51b815260040161076190614554565b60008073__$12aa84c77afb1e34eece64d20d70016d15$__634f2909688935866109d860808d0160608e016141ca565b6109e860a08e0160808f016141ca565b8d60a00160208101906109fb91906141ca565b7f00000000000000000000000000000000000000000000000000000000000000007f00000000000000000000000000000000000000000000000000000000000000006040518863ffffffff1660e01b8152600401610a5f97969594939291906147e6565b60a06040518083038186803b158015610a7757600080fd5b505af4158015610a8b573d6000803e3d6000fd5b505050506040513d601f19601f82011682018060405250810190610aaf9190614114565b60208601805193985091945092508391610aca908390614a3e565b90525060018054829190600090610ae2908490614a3e565b90915550610b88905085600986016000610b0260608d0160408e01613fc6565b6001600160a01b0316815260208101919091526040016000209081546001810183556000928352602092839020825190820180549484015160409094015163ffffffff16600160e01b026001600160e01b036001600160701b03958616600160701b026001600160e01b0319909716959093169490941794909417169190911790915590565b9550610b9a6080890160608a016141ca565b6001600160701b03168360000151600001818151610bb89190614a9d565b6001600160801b0316905250602080860151845190910180516001600160701b0390921691610be8908390614a1c565b6001600160801b031690525084516080840180516001600160701b0390921691610c139083906149fa565b6001600160781b0316905250610c2f6080890160608a016141ca565b8360a001818151610c409190614a75565b6001600160701b0316905250610c5c60a0890160808a016141ca565b8360c001818151610c6d91906149cf565b6001600160701b0316905250610c8960c0890160a08a016141ca565b8360e001818151610c9a91906149cf565b6001600160701b03908116909152845180516020918201516001600160801b03918216600160801b92909116919091021787558086015160018801556040808701516002890155606080880151805160038b018054958301519187166001600160e01b031996871617600160701b92881683021790559281015160048b0180549284015191871692861692909217908616840217905560808089015160058b01805460a08c01516001600160781b039093166001600160e81b031990911617600160781b9288169290920291909117905560c089015160068b01805460e08c0151928816961695909517951690920293909317909155610d9f92508a01908a016141ca565b6001600160701b03169650610db48288614abd565b9650610dc08188614abd565b9650610e06610dd560408a0160208b01613fc6565b6001600160a01b037f0000000000000000000000000000000000000000000000000000000000000000169089613768565b6020850151610e43907f000000000000000000000000000000000000000000000000000000000000000090610e3e60c08c018c61498a565b6137bf565b6005840154600685015460408051600160781b9093046001600160701b0390811684528083166020850152600160701b909204909116908201528835907f1147bcb0e71ebff15e66fd21a23234fe9acc1891f46595062d71501b0cacbdaa9060600160405180910390a2610ebd6060890160408a01613fc6565b6001600160a01b0316610ed660408a0160208b01613fc6565b6001600160a01b0316336001600160a01b03167fc4726516366593076075d3550bf236094106d5d311576a357a1f05967262d0798b600001358b8b8b8989604051610f26969594939291906148c8565b60405180910390a4505060016000555092949193509150565b604080518082019091526000808252602082015260026000541415610f765760405162461bcd60e51b8152600401610761906145ae565b60026000558135421015610fb55760405162461bcd60e51b8152600401610761906020808252600490820152634532303360e01b604082015260600190565b6000610fc76040840160208501613fc6565b6001600160a01b03161415610fee5760405162461bcd60e51b815260040161076190614590565b60006110006060840160408501613fc6565b6001600160a01b031614156110275760405162461bcd60e51b815260040161076190614590565b306110386040840160208501613fc6565b6001600160a01b0316141561105f5760405162461bcd60e51b815260040161076190614572565b306110706060840160408501613fc6565b6001600160a01b031614156110975760405162461bcd60e51b815260040161076190614572565b6110a760808301606084016141ca565b6001600160701b03161515806110d457506110c860a08301608084016141ca565b6001600160701b031615155b806110f657506110ea60c0830160a084016141ca565b6001600160701b031615155b80611118575061110c60e0830160c084016141ca565b6001600160701b031615155b6111345760405162461bcd60e51b815260040161076190614518565b813560009081526002602081815260409283902083516101408101855281546001600160801b038082166101008401908152600160801b909204166101208301528152600182015481840152928101548385015283516080808201865260038301546001600160701b038082168452600160701b91829004811695840195909552600480850154808716858a015282900486166060858101919091528088019490945260058501546001600160781b03811693880193909352600160781b909204851660a0870152600684015480861660c08801520490931660e085015293516317db9b6b60e01b8152909373__$12aa84c77afb1e34eece64d20d70016d15$__926317db9b6b9261124c928792908a019101614601565b604080518083038186803b15801561126357600080fd5b505af4158015611277573d6000803e3d6000fd5b505050506040513d601f19601f8201168201806040525081019061129b9190614149565b92506112ad60808501606086016141ca565b606082015180516112bf908390614a75565b6001600160701b03169052506112db60a08501608086016141ca565b81606001516020018181516112f09190614a75565b6001600160701b031690525061130c60c0850160a086016141ca565b81606001516040018181516113219190614a75565b6001600160701b031690525061133d60e0850160c086016141ca565b81606001516060018181516113529190614a75565b6001600160701b0390811690915233600090815260088501602090815260409182902082516080808201855282548087168352600160701b9081900487169483019490945260019092015480861694820194909452919092049092166060808401919091529192506113c9919087019087016141ca565b815182906113d8908390614a75565b6001600160701b03169052506113f460a08601608087016141ca565b816020018181516114059190614a75565b6001600160701b031690525061142160c0860160a087016141ca565b816040018181516114329190614a75565b6001600160701b031690525061144e60e0860160c087016141ca565b8160600181815161145f9190614a75565b6001600160701b0390811690915233600090815260088601602090815260409182902085518154928701519085166001600160e01b031993841617600160701b91861682021782559286015160019091018054606088015192861693169290921793169091029190911790555083516001600160801b031615611548578351825180516114ed908390614a9d565b6001600160801b031690525061154861150c6040870160208801613fc6565b85516001600160a01b037f00000000000000000000000000000000000000000000000000000000000000001691906001600160801b0316613768565b60208401516001600160801b0316156115d357836020015182600001516020018181516115759190614a9d565b6001600160801b03169052506115d36115946060870160408801613fc6565b60208601516001600160a01b037f00000000000000000000000000000000000000000000000000000000000000001691906001600160801b0316613768565b815180516020918201516001600160801b03918216600160801b929091169190910217845580830151600185015560408084015160028601556060808501518051600388018054958301516001600160701b039283166001600160e01b031997881617600160701b9184168202179091558285015160048a0180549486015191841694881694909417908316820217909255608087015160058901805460a08a01516001600160781b039093166001600160e81b031990911617600160781b9284169290920291909117905560c087015160068901805460e08a01519284169716969096179116909102179092556116cf918701908701613fc6565b6001600160a01b03166116e86040870160208801613fc6565b6001600160a01b0316336001600160a01b03167fd3240d81c413bb3991c962b2f29da128e2d22cd3f040b2bfe14f0d2a3d0199a2886000013589606001896040516117359392919061475b565b60405180910390a45050600160005550919050565b60408051606081018252600080825260208201819052918101829052819081906002600054141561178d5760405162461bcd60e51b8152600401610761906145ae565b6002600055843542106117b25760405162461bcd60e51b815260040161076190614536565b64010000000042863503106117f25760405162461bcd60e51b81526004016107619060208082526004908201526308a6460760e31b604082015260600190565b60006118046040870160208801613fc6565b6001600160a01b0316141561182b5760405162461bcd60e51b815260040161076190614590565b600061183d6060870160408801613fc6565b6001600160a01b031614156118645760405162461bcd60e51b815260040161076190614590565b306118756040870160208801613fc6565b6001600160a01b0316141561189c5760405162461bcd60e51b815260040161076190614572565b306118ad6060870160408801613fc6565b6001600160a01b031614156118d45760405162461bcd60e51b815260040161076190614572565b6118e460808601606087016141ca565b6001600160701b03166119095760405162461bcd60e51b815260040161076190614518565b61191960a08601608087016141ca565b6001600160701b031661193e5760405162461bcd60e51b815260040161076190614518565b61194e60c0860160a087016141ca565b6001600160701b03166119735760405162461bcd60e51b815260040161076190614518565b8435600081815260026020818152604080842081516101408101835281546001600160801b038082166101008401908152600160801b909204166101208301528152600182015481850152938101548483015281516080808201845260038301546001600160701b038082168452600160701b918290048116968401969096526004840154808716958401959095529384900485166060838101919091528087019290925260058301546001600160781b03811682880152600160781b9004851660a0870152600683015480861660c08801529390930490931660e08501529492939273__$12aa84c77afb1e34eece64d20d70016d15$__926397b37914928791611a82918e01908e016141ca565b611a9260a08e0160808f016141ca565b8d60a0016020810190611aa591906141ca565b6040518663ffffffff1660e01b8152600401611ac59594939291906147a5565b60a06040518083038186803b158015611add57600080fd5b505af4158015611af1573d6000803e3d6000fd5b505050506040513d601f19601f82011682018060405250810190611b1591906142b7565b9197509450905085611b525760405162461bcd60e51b8152600401610761906020808252600490820152632299189960e11b604082015260600190565b8582604001818151611b649190614a3e565b90525085600784016000611b7e60408c0160208d01613fc6565b6001600160a01b03166001600160a01b031681526020019081526020016000206000828254611bad9190614a3e565b925050819055508082602001818151611bc69190614a3e565b905250611be384600985016000610b0260608d0160408e01613fc6565b9450611bf56080890160608a016141ca565b6001600160701b03168260000151600001818151611c139190614a1c565b6001600160801b0316905250602080850151835190910180516001600160701b0390921691611c43908390614a1c565b6001600160801b031690525083516080830180516001600160701b0390921691611c6e9083906149fa565b6001600160781b0316905250611c8a6080890160608a016141ca565b8260a001818151611c9b91906149cf565b6001600160701b0316905250611cb760a0890160808a016141ca565b8260c001818151611cc891906149cf565b6001600160701b0316905250611ce460c0890160a08a016141ca565b8260e001818151611cf591906149cf565b6001600160701b03908116909152835180516020918201516001600160801b03918216600160801b92909116919091021786558085015160018701556040808601516002880155606080870151805160038a018054958301519187166001600160e01b031996871617600160701b92881683021790559281015160048a0180549284015191871692861692909217908616840217905560808088015160058a01805460a08b01516001600160781b039093166001600160e81b031990911617600160781b9288169290920291909117905560c088015160068a01805460e08b0151928816961695909517951690920293909317909155611dfa92508a01908a016141ca565b6001600160701b03169650611e0f8188614a3e565b9650611e717f00000000000000000000000000000000000000000000000000000000000000007f00000000000000000000000000000000000000000000000000000000000000008987602001518c8060c00190611e6c919061498a565b613898565b6005830154600684015460408051600160781b9093046001600160701b0390811684528083166020850152600160701b909204909116908201528835907f1147bcb0e71ebff15e66fd21a23234fe9acc1891f46595062d71501b0cacbdaa9060600160405180910390a2611eeb6060890160408a01613fc6565b6001600160a01b0316611f0460408a0160208b01613fc6565b6001600160a01b0316336001600160a01b03167f88018ff4a4eb65189878e69e43401baaf50cfe5cdc5d0412a32f646d193b88f68b600001358b8b8b8b89604051611f54969594939291906148ff565b60405180910390a4505060016000555092949193509190565b600060026000541415611f925760405162461bcd60e51b8152600401610761906145ae565b60026000819055507f00000000000000000000000000000000000000000000000000000000000000006001600160a01b0316638da5cb5b6040518163ffffffff1660e01b815260040160206040518083038186803b158015611ff357600080fd5b505afa158015612007573d6000803e3d6000fd5b505050506040513d601f19601f8201168201806040525081019061202b9190613fe2565b6001600160a01b0316336001600160a01b0316146120745760405162461bcd60e51b8152600401610761906020808252600490820152632299189b60e11b604082015260600190565b6001600160a01b03821661209a5760405162461bcd60e51b815260040161076190614590565b506001805460009091556120d86001600160a01b037f0000000000000000000000000000000000000000000000000000000000000000168383613768565b6040518181526001600160a01b0383169033907fbea3eebc02d46c3713e32d2ca6ab0ee1698c47e76cd1bd7707794dcea8bf56f19060200160405180910390a36001600055919050565b6040805160808101825260008082526020820181905291810182905260608101829052600260005414156121685760405162461bcd60e51b8152600401610761906145ae565b60026000558235421061218d5760405162461bcd60e51b815260040161076190614536565b600061219f6040850160208601613fc6565b6001600160a01b031614156121c65760405162461bcd60e51b815260040161076190614590565b60006121d86060850160408601613fc6565b6001600160a01b031614156121ff5760405162461bcd60e51b815260040161076190614590565b306122106040850160208601613fc6565b6001600160a01b031614156122375760405162461bcd60e51b815260040161076190614572565b306122486060850160408601613fc6565b6001600160a01b0316141561226f5760405162461bcd60e51b815260040161076190614572565b61227f60808401606085016141ca565b6001600160701b03166122a45760405162461bcd60e51b815260040161076190614518565b823560009081526002602081815260409283902083516101408101855281546001600160801b038082166101008401908152600160801b9092041661012083015281526001820154818401529281015483850190815284516080808201875260038401546001600160701b038082168452600160701b9182900481169684019690965260048501548087169884019890985296879004851660608381019190915286019190915260058301546001600160781b03811691860191909152600160781b9004831660a0850152600682015480841660c08601529490940490911660e083015291516123a65760405162461bcd60e51b815260040161076190614554565b60008073__$12aa84c77afb1e34eece64d20d70016d15$__63ae375c4b8835866123d660808c0160608d016141ca565b6123e660a08d0160808e016141ca565b6123f660c08e0160a08f016141ca565b7f00000000000000000000000000000000000000000000000000000000000000007f00000000000000000000000000000000000000000000000000000000000000006040518863ffffffff1660e01b815260040161245a97969594939291906147e6565b60c06040518083038186803b15801561247257600080fd5b505af4158015612486573d6000803e3d6000fd5b505050506040513d601f19601f820116820180604052508101906124aa9190614062565b602086018051939850919450925083916124c5908390614a3e565b905250600180548291906000906124dd908490614a3e565b90915550508451606084015180516124f69083906149cf565b6001600160701b03169052506020808601516060850151909101805161251d9083906149cf565b6001600160701b0316905250604080860151606085015190910180516125449083906149cf565b6001600160701b031690525060608086015184820151909101805161256a9083906149cf565b6001600160701b0316905250845160088501600061258e60408b0160208c01613fc6565b6001600160a01b031681526020810191909152604001600090812080549091906125c29084906001600160701b03166149cf565b92506101000a8154816001600160701b0302191690836001600160701b0316021790555084602001518460080160008960200160208101906126049190613fc6565b6001600160a01b0316815260208101919091526040016000208054600e9061263d908490600160701b90046001600160701b03166149cf565b92506101000a8154816001600160701b0302191690836001600160701b03160217905550846040015184600801600089604001602081019061267f9190613fc6565b6001600160a01b031681526020810191909152604001600090812060010180549091906126b69084906001600160701b03166149cf565b92506101000a8154816001600160701b0302191690836001600160701b0316021790555084606001518460080160008960400160208101906126f89190613fc6565b6001600160a01b0316815260208101919091526040016000206001018054600e90612734908490600160701b90046001600160701b03166149cf565b92506101000a8154816001600160701b0302191690836001600160701b0316021790555086606001602081019061276b91906141ca565b6001600160701b031683600001516000018181516127899190614a1c565b6001600160801b03169052506127a560808801606089016141ca565b8360a0018181516127b691906149cf565b6001600160701b03169052506127d260a08801608089016141ca565b8360c0018181516127e39190614a75565b6001600160701b03169052506127ff60c0880160a089016141ca565b8360e0018181516128109190614a75565b6001600160701b03908116909152845180516020918201516001600160801b03918216600160801b92909116919091021787558086015160018801556040808701516002890155606080880151805160038b018054958301519187166001600160e01b031996871617600160701b92881683021790559281015160048b0180549284015191871692861692909217908616840217905560808089015160058b01805460a08c01516001600160781b039093166001600160e81b031990911617600160781b9288169290920291909117905560c089015160068b01805460e08c0151928816961695909517951690920293909317909155612915925089019089016141ca565b6001600160701b0316955061292a8287614a3e565b95506129368187614a3e565b955061296f7f00000000000000000000000000000000000000000000000000000000000000008761296a60c08b018b61498a565b6139e5565b6005840154600685015460408051600160781b9093046001600160701b0390811684528083166020850152600160701b909204909116908201528735907f1147bcb0e71ebff15e66fd21a23234fe9acc1891f46595062d71501b0cacbdaa9060600160405180910390a26129e96060880160408901613fc6565b6001600160a01b0316612a026040890160208a01613fc6565b6001600160a01b0316336001600160a01b03167fc6ae44b99f4b17a71cd3ae5da13dc05e88b22f10c92b25a20336fe8daae231958a600001358a8a8888604051612a5095949392919061485c565b60405180910390a4505050506001600081905550915091565b6040805160608101825260008082526020808301829052828401829052868252600281528382206001600160a01b0387168352600901905291909120805483908110612ac557634e487b7160e01b600052603260045260246000fd5b60009182526020918290206040805160608101825291909201546001600160701b038082168352600160701b8204169382019390935263ffffffff600160e01b909304929092169082015290505b9392505050565b60008060026000541415612b405760405162461bcd60e51b8152600401610761906145ae565b60026000558235421015612b7f5760405162461bcd60e51b8152600401610761906020808252600490820152634532303360e01b604082015260600190565b6000612b916040850160208601613fc6565b6001600160a01b03161415612bb85760405162461bcd60e51b815260040161076190614590565b6000612bca6060850160408601613fc6565b6001600160a01b03161415612bf15760405162461bcd60e51b815260040161076190614590565b30612c026040850160208601613fc6565b6001600160a01b03161415612c295760405162461bcd60e51b815260040161076190614572565b30612c3a6060850160408601613fc6565b6001600160a01b03161415612c615760405162461bcd60e51b815260040161076190614572565b6060830135612c825760405162461bcd60e51b815260040161076190614518565b823560009081526002602081815260409283902083516101408101855281546001600160801b038082166101008401908152600160801b9092041661012083015281526001820154818401529281015483850190815284516080808201875260038401546001600160701b038082168452600160701b9182900481169684019690965260048501548087169884019890985296879004851660608381019190915286019190915260058301546001600160781b03811691860191909152600160781b9004831660a0850152600682015480841660c08601529490940490911660e08301529151612d845760405162461bcd60e51b815260040161076190614554565b60405163029b65e160e41b8152600090819073__$12aa84c77afb1e34eece64d20d70016d15$__906329b65e1090612dc690879060608c01359060040161461e565b60606040518083038186803b158015612dde57600080fd5b505af4158015612df2573d6000803e3d6000fd5b505050506040513d601f19601f82011682018060405250810190612e1691906141e6565b604086018051929850929450925060608901359190612e36908390614abd565b9052503360009081526007850160205260408120805460608a01359290612e5e908490614abd565b90915550506001600160801b0382169550612e798187614a3e565b95508515612efa5782518051839190612e93908390614a9d565b6001600160801b0316905250602083018051829190612eb3908390614abd565b905250612efa612ec96040890160208a01613fc6565b6001600160a01b037f0000000000000000000000000000000000000000000000000000000000000000169088613768565b6001600160801b03851615612f7857848360000151602001818151612f1f9190614a9d565b6001600160801b0316905250612f78612f3e6060890160408a01613fc6565b6001600160a01b037f000000000000000000000000000000000000000000000000000000000000000016906001600160801b038816613768565b825180516020918201516001600160801b03918216600160801b929091169190910217855580840151600186015560408085015160028701556060808601518051600389018054958301516001600160701b039283166001600160e01b031997881617600160701b9184168202179091558285015160048b0180549486015191841694881694909417908316820217909255608088015160058a01805460a08b01516001600160781b039093166001600160e81b031990911617600160781b9284169290920291909117905560c088015160068a01805460e08b0151928416971696909617911690910217909255613074918901908901613fc6565b6001600160a01b031661308d6040890160208a01613fc6565b604080518a3581526060808c013560208301529181018a90526001600160801b03891691810191909152608081018490526001600160a01b03919091169033907fe29621344001b5bbfbfa920bf7ad2b10cb37ac862596010c0c9e813e65ed344f9060a001612a50565b6000806002600054141561311d5760405162461bcd60e51b8152600401610761906145ae565b6002600055823542106131425760405162461bcd60e51b815260040161076190614536565b60006131546060850160408601613fc6565b6001600160a01b0316141561317b5760405162461bcd60e51b815260040161076190614590565b600061318d6040850160208601613fc6565b6001600160a01b031614156131b45760405162461bcd60e51b815260040161076190614590565b306131c56040850160208601613fc6565b6001600160a01b031614156131ec5760405162461bcd60e51b815260040161076190614572565b60006131fb606085018561493b565b915061320c9050608085018561493b565b9050811461322c5760405162461bcd60e51b815260040161076190614518565b61323960a085018561493b565b905081146132595760405162461bcd60e51b815260040161076190614518565b83356000908152600260205260408082209190600983019082906132839060608a01908a01613fc6565b6001600160a01b03168152602081019190915260400160002080549091508311156132c05760405162461bcd60e51b815260040161076190614518565b60005b83811015613597576000826132db60608a018a61493b565b848181106132f957634e487b7160e01b600052603260045260246000fd5b905060200201358154811061331e57634e487b7160e01b600052603260045260246000fd5b9060005260206000200190506133314390565b8154600160e01b900463ffffffff9081169116141561337b5760405162461bcd60e51b8152600401610761906020808252600490820152634532303760e01b604082015260600190565b600061338a60808a018a61493b565b848181106133a857634e487b7160e01b600052603260045260246000fd5b90506020020160208101906133bd91906141ca565b905060006133ce60a08b018b61493b565b858181106133ec57634e487b7160e01b600052603260045260246000fd5b905060200201602081019061340191906141ca565b90503361341460608c0160408d01613fc6565b6001600160a01b031614613462576001600160701b038116156134625760405162461bcd60e51b8152600401610761906020808252600490820152634532313360e01b604082015260600190565b825461347b906001600160701b03908116908316614a56565b835461349b906001600160701b03600160701b9091048116908516614a56565b10156134d25760405162461bcd60e51b8152600401610761906020808252600490820152634533303360e01b604082015260600190565b8254829084906000906134ef9084906001600160701b0316614a75565b92506101000a8154816001600160701b0302191690836001600160701b031602179055508083600001600e8282829054906101000a90046001600160701b03166135399190614a75565b92506101000a8154816001600160701b0302191690836001600160701b03160217905550816001600160701b0316896135729190614a1c565b98506135876001600160701b03821689614a1c565b97508360010193505050506132c3565b508154859083906000906135b59084906001600160801b0316614a1c565b82546101009290920a6001600160801b03818102199093169183160217909155835486925084916010916135f2918591600160801b900416614a9d565b92506101000a8154816001600160801b0302191690836001600160801b03160217905550836001600160801b03166000146136745761367461363a6040880160208901613fc6565b6001600160a01b037f000000000000000000000000000000000000000000000000000000000000000016906001600160801b038716613768565b6001600160801b038516156136ba576136ba7f0000000000000000000000000000000000000000000000000000000000000000866136b560c08a018a61498a565b613aad565b6136ca6060870160408801613fc6565b6001600160a01b03166136e36040880160208901613fc6565b6001600160a01b0316337f5a01dee47555c7f01c7780ac1365c62953080831de57e9f8c683842a8f05103c893561371d60608c018c61493b565b61372a60808e018e61493b565b8e8060a0019061373a919061493b565b8f8f604051613751999897969594939291906146ae565b60405180910390a450506001600055509092909150565b604080516001600160a01b038416602482015260448082018490528251808303909101815260649091019091526020810180516001600160e01b031663a9059cbb60e01b1790526137ba908490613b46565b505050565b60006137d3856001600160a01b0316613c18565b6040516390e4d0b160e01b815290915033906390e4d0b1906137fd9087908790879060040161465f565b600060405180830381600087803b15801561381757600080fd5b505af115801561382b573d6000803e3d6000fd5b505050506000613843866001600160a01b0316613c18565b90506138586001600160701b03861683614a3e565b8110156138905760405162461bcd60e51b8152600401610761906020808252600490820152634533303560e01b604082015260600190565b505050505050565b60006138ac876001600160a01b0316613c18565b905060006138c2876001600160a01b0316613c18565b60405163c317bf6160e01b8152909150339063c317bf61906138ee908990899089908990600401614833565b600060405180830381600087803b15801561390857600080fd5b505af115801561391c573d6000803e3d6000fd5b505050506000613934896001600160a01b0316613c18565b9050600061394a896001600160a01b0316613c18565b90506139568885614a3e565b82101561398e5760405162461bcd60e51b815260040161076190602080825260049082015263114ccc0d60e21b604082015260600190565b6139a16001600160701b03881684614a3e565b8110156139d95760405162461bcd60e51b8152600401610761906020808252600490820152634533303560e01b604082015260600190565b50505050505050505050565b60006139f9856001600160a01b0316613c18565b604051631ac6082d60e01b81529091503390631ac6082d90613a2390879087908790600401614741565b600060405180830381600087803b158015613a3d57600080fd5b505af1158015613a51573d6000803e3d6000fd5b505050506000613a69866001600160a01b0316613c18565b9050613a758583614a3e565b8110156138905760405162461bcd60e51b815260040161076190602080825260049082015263114ccc0d60e21b604082015260600190565b6000613ac1856001600160a01b0316613c18565b60405163c70449bf60e01b8152909150339063c70449bf90613aeb9087908790879060040161468b565b600060405180830381600087803b158015613b0557600080fd5b505af1158015613b19573d6000803e3d6000fd5b505050506000613b31866001600160a01b0316613c18565b9050613a756001600160801b03861683614a3e565b6000613b9b826040518060400160405280602081526020017f5361666545524332303a206c6f772d6c6576656c2063616c6c206661696c6564815250856001600160a01b0316613cac9092919063ffffffff16565b8051909150156137ba5780806020019051810190613bb99190613ffe565b6137ba5760405162461bcd60e51b815260206004820152602a60248201527f5361666545524332303a204552433230206f7065726174696f6e20646964206e6044820152691bdd081cdd58d8d9595960b21b6064820152608401610761565b60408051306024808301919091528251808303909101815260449091018252602080820180516001600160e01b03166370a0823160e01b179052825180840190935260168352752330b4b632b21022a9219918103130b630b731b2a7b360511b908301526000918291613c96916001600160a01b0386169190613cc3565b905080806020019051810190612b139190614239565b6060613cbb8484600085613d9d565b949350505050565b60606001600160a01b0384163b613d285760405162461bcd60e51b8152602060048201526024808201527f416464726573733a207374617469632063616c6c20746f206e6f6e2d636f6e746044820152631c9858dd60e21b6064820152608401610761565b600080856001600160a01b031685604051613d4391906144c9565b600060405180830381855afa9150503d8060008114613d7e576040519150601f19603f3d011682016040523d82523d6000602084013e613d83565b606091505b5091509150613d93828286613ece565b9695505050505050565b606082471015613dfe5760405162461bcd60e51b815260206004820152602660248201527f416464726573733a20696e73756666696369656e742062616c616e636520666f6044820152651c8818d85b1b60d21b6064820152608401610761565b6001600160a01b0385163b613e555760405162461bcd60e51b815260206004820152601d60248201527f416464726573733a2063616c6c20746f206e6f6e2d636f6e74726163740000006044820152606401610761565b600080866001600160a01b03168587604051613e7191906144c9565b60006040518083038185875af1925050503d8060008114613eae576040519150601f19603f3d011682016040523d82523d6000602084013e613eb3565b606091505b5091509150613ec3828286613ece565b979650505050505050565b60608315613edd575081612b13565b825115613eed5782518084602001fd5b8160405162461bcd60e51b815260040161076191906144e5565b600060e08284031215613f18578081fd5b50919050565b600060608284031215613f2f578081fd5b6040516060810181811067ffffffffffffffff82111715613f5e57634e487b7160e01b83526041600452602483fd5b80604052508091508251613f7181614b2e565b81526020830151613f8181614b2e565b6020820152604083015163ffffffff81168114613f9d57600080fd5b6040919091015292915050565b80516001600160801b0381168114613fc157600080fd5b919050565b600060208284031215613fd7578081fd5b8135612b1381614b16565b600060208284031215613ff3578081fd5b8151612b1381614b16565b60006020828403121561400f578081fd5b81518015158114612b13578182fd5b60006020828403121561402f578081fd5b813567ffffffffffffffff811115614045578182fd5b613cbb84828501613f07565b600060808284031215613f18578081fd5b600080600083850360c0811215614077578283fd5b6080811215614084578283fd5b506040516080810181811067ffffffffffffffff821117156140b457634e487b7160e01b84526041600452602484fd5b60405284516140c281614b2e565b815260208501516140d281614b2e565b602082015260408501516140e581614b2e565b604082015260608501516140f881614b2e565b6060820152608085015160a09095015190969495509392505050565b600080600060a08486031215614128578283fd5b6141328585613f1e565b925060608401519150608084015190509250925092565b60006040828403121561415a578081fd5b6040516040810181811067ffffffffffffffff8211171561418957634e487b7160e01b83526041600452602483fd5b60405261419583613faa565b81526141a360208401613faa565b60208201529392505050565b600060e082840312156141c0578081fd5b612b138383613f07565b6000602082840312156141db578081fd5b8135612b1381614b2e565b6000806000606084860312156141fa578081fd5b61420384613faa565b925061421160208501613faa565b9150604084015190509250925092565b600060208284031215614232578081fd5b5035919050565b60006020828403121561424a578081fd5b5051919050565b60008060408385031215614263578182fd5b82359150602083013561427581614b16565b809150509250929050565b600080600060608486031215614294578081fd5b8335925060208401356142a681614b16565b929592945050506040919091013590565b600080600060a084860312156142cb578081fd5b835192506142dc8560208601613f1e565b9150608084015190509250925092565b81835260006020808501945082825b8581101561432957813561430e81614b2e565b6001600160701b0316875295820195908201906001016142fb565b509495945050505050565b81835281816020850137506000828201602090810191909152601f909101601f19169091010190565b803561436881614b2e565b6001600160701b03908116835260208201359061438482614b2e565b908116602084015260408201359061439b82614b2e565b90811660408401526060820135906143b282614b2e565b808216606085015250505050565b80516001600160701b03908116835260208083015182169084015260408083015182169084015260609182015116910152565b6001600160701b038082511683528060208301511660208401525063ffffffff60408201511660408301525050565b80546001600160801b0381168352608090811c6020840152600182015460408401526002820154606084015260038201546001600160701b0380821692850192909252607090811c821660a0850152600483015480831660c0860152811c821660e085015260058301546001600160781b03811661010086015260781c821661012085015260068301548083166101408601529081901c8216610160850152905b50505050565b600082516144db818460208701614ad4565b9190910192915050565b6020815260008251806020840152614504816040850160208701614ad4565b601f01601f19169190910160400192915050565b6020808252600490820152634532303560e01b604082015260600190565b6020808252600490820152632299181960e11b604082015260600190565b6020808252600490820152632299181b60e11b604082015260600190565b602080825260049082015263114c8c0d60e21b604082015260600190565b6020808252600490820152634532303160e01b604082015260600190565b6020808252601f908201527f5265656e7472616e637947756172643a207265656e7472616e742063616c6c00604082015260600190565b6080810161071a82846143c0565b6060810161071a82846143f3565b61020081016146108285614422565b612b1361018083018461435d565b6101a0810161462d8285614422565b826101808301529392505050565b6040810161071a828480516001600160801b03908116835260209182015116910152565b6001600160701b0384168152604060208201526000614682604083018486614334565b95945050505050565b6001600160801b0384168152604060208201526000614682604083018486614334565b89815260c060208201819052810188905260006001600160fb1b038911156146d4578081fd5b8860051b808b60e0850137808301905060e0810182815260e0848303016040850152614701818a8c6142ec565b91505082810360608401526147178187896142ec565b9150506001600160801b03808516608084015280841660a0840152509a9950505050505050505050565b838152604060208201526000614682604083018486614334565b83815260e0810161476f602083018561435d565b82516001600160801b0390811660a084015260208401511660c0830152613cbb565b82815260a08101612b1360208301846143c0565b85815261020081016147ba6020830187614422565b6001600160701b039485166101a08301529284166101c082015292166101e09092019190915292915050565b87815261024081016147fb6020830189614422565b6001600160701b039687166101a08301529486166101c0820152929094166101e0830152610200820152610220019190915292915050565b8481526001600160701b0384166020820152606060408201526000613d93606083018486614334565b85815260208101859052610100810161487860408301866143c0565b60c082019390935260e001529392505050565b8381526020810183905260a08101613cbb60408301846143f3565b848152602081018490526040810183905260c0810161468260608301846143f3565b868152602081018690526040810185905261010081016148eb60608301866143f3565b60c082019390935260e00152949350505050565b60006101008201905087825286602083015285604083015284606083015261492a60808301856143f3565b8260e0830152979650505050505050565b6000808335601e19843603018112614951578283fd5b83018035915067ffffffffffffffff82111561496b578283fd5b6020019150600581901b360382131561498357600080fd5b9250929050565b6000808335601e198436030181126149a0578283fd5b83018035915067ffffffffffffffff8211156149ba578283fd5b60200191503681900382131561498357600080fd5b60006001600160701b038083168185168083038211156149f1576149f1614b00565b01949350505050565b60006001600160781b038083168185168083038211156149f1576149f1614b00565b60006001600160801b038083168185168083038211156149f1576149f1614b00565b60008219821115614a5157614a51614b00565b500190565b6000816000190483118215151615614a7057614a70614b00565b500290565b60006001600160701b0383811690831681811015614a9557614a95614b00565b039392505050565b60006001600160801b0383811690831681811015614a9557614a95614b00565b600082821015614acf57614acf614b00565b500390565b60005b83811015614aef578181015183820152602001614ad7565b838111156144c35750506000910152565b634e487b7160e01b600052601160045260246000fd5b6001600160a01b0381168114614b2b57600080fd5b50565b6001600160701b0381168114614b2b57600080fdfea26469706673582212200963786da14232a66195d4a45ffce85c123dab39a827658831125f6d7f65505264736f6c63430008040033a2646970667358221220a3eae054eb0b5b73fcad40166944302b56175d4a8a36dd39465c953a08b3bd7b64736f6c63430008040033",
  "libraries": {
    "TimeswapMath": "0x080821205A962Bde44B6D7E5E46820F6f9cFC66B"
  },
  "devdoc": {
    "author": "Timeswap Labs",
    "kind": "dev",
    "methods": {
      "acceptOwner()": {
        "details": "Set the pending owner as the owner of the factory.Reset the pending owner to zero.Can only be called by the pending owner."
      },
      "constructor": {
        "params": {
          "_fee": "The chosen fee rate.",
          "_owner": "The chosen owner address.",
          "_protocolFee": "The chosen protocol fee rate."
        }
      },
      "createPair(address,address)": {
        "details": "Creates a Timeswap Pool based on ERC20 pair parameters.Cannot create a Timeswap Pool with the same pair parameters.",
        "params": {
          "asset": "The address of the ERC20 being lent and borrowed.",
          "collateral": "The address of the ERC20 as the collateral."
        },
        "returns": {
          "pair": "The address of the Timeswap Pair contract."
        }
      },
      "setPendingOwner(address)": {
        "details": "Set the pending owner of the factory.Can only be called by the current owner.",
        "params": {
          "_pendingOwner": "the chosen pending owner."
        }
      }
    },
    "stateVariables": {
      "fee": {
        "details": "Return the fee per second earned by liquidity providers.Must be downcasted to uint16.",
        "return": "The fee following UQ0.40 format.",
        "returns": {
          "_0": "The fee following UQ0.40 format."
        }
      },
      "getPair": {
        "details": "Returns the address of a deployed pair.",
        "params": {
          "asset": "The address of the ERC20 being lent and borrowed.",
          "collateral": "The address of the ERC20 used as collateral."
        },
        "return": "pair The address of the Timeswap Pair contract.",
        "returns": {
          "_0": "pair The address of the Timeswap Pair contract."
        }
      },
      "owner": {
        "details": "Return the address that receives the protocol fee.",
        "return": "The address of the owner.",
        "returns": {
          "_0": "The address of the owner."
        }
      },
      "pendingOwner": {
        "details": "Return the new pending address to replace the owner.",
        "return": "The address of the pending owner.",
        "returns": {
          "_0": "The address of the pending owner."
        }
      },
      "protocolFee": {
        "details": "Return the protocol fee per second earned by the owner.Must be downcasted to uint16.",
        "return": "The protocol fee per second following UQ0.40 format.",
        "returns": {
          "_0": "The protocol fee per second following UQ0.40 format."
        }
      }
    },
    "title": "Timeswap Factory",
    "version": 1
  },
  "userdoc": {
    "kind": "user",
    "methods": {},
    "notice": "It is recommended to use Timeswap Convenience to interact with this contract.All error messages are coded and can be found in the documentation.",
    "version": 1
  },
  "storageLayout": {
    "storage": [
      {
        "astId": 1286,
        "contract": "contracts/TimeswapFactory.sol:TimeswapFactory",
        "label": "owner",
        "offset": 0,
        "slot": "0",
        "type": "t_address"
      },
      {
        "astId": 1290,
        "contract": "contracts/TimeswapFactory.sol:TimeswapFactory",
        "label": "pendingOwner",
        "offset": 0,
        "slot": "1",
        "type": "t_address"
      },
      {
        "astId": 1309,
        "contract": "contracts/TimeswapFactory.sol:TimeswapFactory",
        "label": "getPair",
        "offset": 0,
        "slot": "2",
        "type": "t_mapping(t_contract(IERC20)703,t_mapping(t_contract(IERC20)703,t_contract(IPair)4088))"
      }
    ],
    "types": {
      "t_address": {
        "encoding": "inplace",
        "label": "address",
        "numberOfBytes": "20"
      },
      "t_contract(IERC20)703": {
        "encoding": "inplace",
        "label": "contract IERC20",
        "numberOfBytes": "20"
      },
      "t_contract(IPair)4088": {
        "encoding": "inplace",
        "label": "contract IPair",
        "numberOfBytes": "20"
      },
      "t_mapping(t_contract(IERC20)703,t_contract(IPair)4088)": {
        "encoding": "mapping",
        "key": "t_contract(IERC20)703",
        "label": "mapping(contract IERC20 => contract IPair)",
        "numberOfBytes": "32",
        "value": "t_contract(IPair)4088"
      },
      "t_mapping(t_contract(IERC20)703,t_mapping(t_contract(IERC20)703,t_contract(IPair)4088))": {
        "encoding": "mapping",
        "key": "t_contract(IERC20)703",
        "label": "mapping(contract IERC20 => mapping(contract IERC20 => contract IPair))",
        "numberOfBytes": "32",
        "value": "t_mapping(t_contract(IERC20)703,t_contract(IPair)4088)"
      }
    }
  }
}